{
  "contractName": "Auction",
  "abi": [
    {
      "inputs": [],
      "stateMutability": "nonpayable",
      "type": "constructor"
    },
    {
      "inputs": [
        {
          "internalType": "uint256",
          "name": "",
          "type": "uint256"
        }
      ],
      "name": "assets",
      "outputs": [
        {
          "internalType": "string",
          "name": "name",
          "type": "string"
        },
        {
          "internalType": "uint256",
          "name": "value",
          "type": "uint256"
        },
        {
          "internalType": "address",
          "name": "owner",
          "type": "address"
        }
      ],
      "stateMutability": "view",
      "type": "function"
    },
    {
      "inputs": [
        {
          "internalType": "string",
          "name": "name",
          "type": "string"
        },
        {
          "internalType": "uint256",
          "name": "value",
          "type": "uint256"
        },
        {
          "internalType": "address",
          "name": "owner",
          "type": "address"
        }
      ],
      "name": "createAsset",
      "outputs": [],
      "stateMutability": "payable",
      "type": "function"
    },
    {
      "inputs": [
        {
          "internalType": "uint256",
          "name": "index",
          "type": "uint256"
        }
      ],
      "name": "buyAsset",
      "outputs": [],
      "stateMutability": "payable",
      "type": "function"
    },
    {
      "inputs": [],
      "name": "getAssets",
      "outputs": [
        {
          "components": [
            {
              "internalType": "string",
              "name": "name",
              "type": "string"
            },
            {
              "internalType": "uint256",
              "name": "value",
              "type": "uint256"
            },
            {
              "internalType": "address",
              "name": "owner",
              "type": "address"
            }
          ],
          "internalType": "struct Auction.Asset[]",
          "name": "",
          "type": "tuple[]"
        }
      ],
      "stateMutability": "view",
      "type": "function"
    }
  ],
  "bytecode": "0x608060405260006001553480156200001657600080fd5b5033600260006101000a81548173ffffffffffffffffffffffffffffffffffffffff021916908373ffffffffffffffffffffffffffffffffffffffff160217905550620000c86040518060400160405280600381526020017f4141410000000000000000000000000000000000000000000000000000000000815250655af3107a4000600260009054906101000a900473ffffffffffffffffffffffffffffffffffffffff166200028e60201b60201c565b620001386040518060400160405280600381526020017f4242420000000000000000000000000000000000000000000000000000000000815250655af3107a4000600260009054906101000a900473ffffffffffffffffffffffffffffffffffffffff166200028e60201b60201c565b620001a86040518060400160405280600381526020017f4343430000000000000000000000000000000000000000000000000000000000815250655af3107a4000600260009054906101000a900473ffffffffffffffffffffffffffffffffffffffff166200028e60201b60201c565b620002186040518060400160405280600381526020017f4444440000000000000000000000000000000000000000000000000000000000815250655af3107a4000600260009054906101000a900473ffffffffffffffffffffffffffffffffffffffff166200028e60201b60201c565b620002886040518060400160405280600381526020017f4545450000000000000000000000000000000000000000000000000000000000815250655af3107a4000600260009054906101000a900473ffffffffffffffffffffffffffffffffffffffff166200028e60201b60201c565b62000476565b600060405180606001604052808581526020018481526020018373ffffffffffffffffffffffffffffffffffffffff16815250908060018154018082558091505060019003906000526020600020906003020160009091909190915060008201518160000190805190602001906200030892919062000361565b506020820151816001015560408201518160020160006101000a81548173ffffffffffffffffffffffffffffffffffffffff021916908373ffffffffffffffffffffffffffffffffffffffff1602179055505050505050565b8280546200036f9062000440565b90600052602060002090601f016020900481019282620003935760008555620003df565b82601f10620003ae57805160ff1916838001178555620003df565b82800160010185558215620003df579182015b82811115620003de578251825591602001919060010190620003c1565b5b509050620003ee9190620003f2565b5090565b5b808211156200040d576000816000905550600101620003f3565b5090565b7f4e487b7100000000000000000000000000000000000000000000000000000000600052602260045260246000fd5b600060028204905060018216806200045957607f821691505b6020821081141562000470576200046f62000411565b5b50919050565b610cf180620004866000396000f3fe60806040526004361061003f5760003560e01c8063110d35b81461004457806367e4ac2c14610060578063cf35bdd01461008b578063e5265e8a146100ca575b600080fd5b61005e600480360381019061005991906105f0565b6100e6565b005b34801561006c57600080fd5b506100756101ff565b6040516100829190610818565b60405180910390f35b34801561009757600080fd5b506100b260048036038101906100ad91906105f0565b610350565b6040516100c1939291906108a2565b60405180910390f35b6100e460048036038101906100df9190610a41565b610432565b005b600081815481106100fa576100f9610ab0565b5b9060005260206000209060030201600101546003819055506002600380546101229190610b0e565b61012c9190610b97565b34101561016e576040517f08c379a000000000000000000000000000000000000000000000000000000000815260040161016590610c3a565b60405180910390fd5b346000828154811061018357610182610ab0565b5b90600052602060002090600302016001018190555033600082815481106101ad576101ac610ab0565b5b906000526020600020906003020160020160006101000a81548173ffffffffffffffffffffffffffffffffffffffff021916908373ffffffffffffffffffffffffffffffffffffffff16021790555050565b60606000805480602002602001604051908101604052809291908181526020016000905b82821015610347578382906000526020600020906003020160405180606001604052908160008201805461025690610c89565b80601f016020809104026020016040519081016040528092919081815260200182805461028290610c89565b80156102cf5780601f106102a4576101008083540402835291602001916102cf565b820191906000526020600020905b8154815290600101906020018083116102b257829003601f168201915b50505050508152602001600182015481526020016002820160009054906101000a900473ffffffffffffffffffffffffffffffffffffffff1673ffffffffffffffffffffffffffffffffffffffff1673ffffffffffffffffffffffffffffffffffffffff168152505081526020019060010190610223565b50505050905090565b6000818154811061036057600080fd5b906000526020600020906003020160009150905080600001805461038390610c89565b80601f01602080910402602001604051908101604052809291908181526020018280546103af90610c89565b80156103fc5780601f106103d1576101008083540402835291602001916103fc565b820191906000526020600020905b8154815290600101906020018083116103df57829003601f168201915b5050505050908060010154908060020160009054906101000a900473ffffffffffffffffffffffffffffffffffffffff16905083565b600060405180606001604052808581526020018481526020018373ffffffffffffffffffffffffffffffffffffffff16815250908060018154018082558091505060019003906000526020600020906003020160009091909190915060008201518160000190805190602001906104aa929190610503565b506020820151816001015560408201518160020160006101000a81548173ffffffffffffffffffffffffffffffffffffffff021916908373ffffffffffffffffffffffffffffffffffffffff1602179055505050505050565b82805461050f90610c89565b90600052602060002090601f0160209004810192826105315760008555610578565b82601f1061054a57805160ff1916838001178555610578565b82800160010185558215610578579182015b8281111561057757825182559160200191906001019061055c565b5b5090506105859190610589565b5090565b5b808211156105a257600081600090555060010161058a565b5090565b6000604051905090565b600080fd5b600080fd5b6000819050919050565b6105cd816105ba565b81146105d857600080fd5b50565b6000813590506105ea816105c4565b92915050565b600060208284031215610606576106056105b0565b5b6000610614848285016105db565b91505092915050565b600081519050919050565b600082825260208201905092915050565b6000819050602082019050919050565b600081519050919050565b600082825260208201905092915050565b60005b83811015610683578082015181840152602081019050610668565b83811115610692576000848401525b50505050565b6000601f19601f8301169050919050565b60006106b482610649565b6106be8185610654565b93506106ce818560208601610665565b6106d781610698565b840191505092915050565b6106eb816105ba565b82525050565b600073ffffffffffffffffffffffffffffffffffffffff82169050919050565b600061071c826106f1565b9050919050565b61072c81610711565b82525050565b6000606083016000830151848203600086015261074f82826106a9565b915050602083015161076460208601826106e2565b5060408301516107776040860182610723565b508091505092915050565b600061078e8383610732565b905092915050565b6000602082019050919050565b60006107ae8261061d565b6107b88185610628565b9350836020820285016107ca85610639565b8060005b8581101561080657848403895281516107e78582610782565b94506107f283610796565b925060208a019950506001810190506107ce565b50829750879550505050505092915050565b6000602082019050818103600083015261083281846107a3565b905092915050565b600082825260208201905092915050565b600061085682610649565b610860818561083a565b9350610870818560208601610665565b61087981610698565b840191505092915050565b61088d816105ba565b82525050565b61089c81610711565b82525050565b600060608201905081810360008301526108bc818661084b565b90506108cb6020830185610884565b6108d86040830184610893565b949350505050565b600080fd5b600080fd5b7f4e487b7100000000000000000000000000000000000000000000000000000000600052604160045260246000fd5b61092282610698565b810181811067ffffffffffffffff82111715610941576109406108ea565b5b80604052505050565b60006109546105a6565b90506109608282610919565b919050565b600067ffffffffffffffff8211156109805761097f6108ea565b5b61098982610698565b9050602081019050919050565b82818337600083830152505050565b60006109b86109b384610965565b61094a565b9050828152602081018484840111156109d4576109d36108e5565b5b6109df848285610996565b509392505050565b600082601f8301126109fc576109fb6108e0565b5b8135610a0c8482602086016109a5565b91505092915050565b610a1e81610711565b8114610a2957600080fd5b50565b600081359050610a3b81610a15565b92915050565b600080600060608486031215610a5a57610a596105b0565b5b600084013567ffffffffffffffff811115610a7857610a776105b5565b5b610a84868287016109e7565b9350506020610a95868287016105db565b9250506040610aa686828701610a2c565b9150509250925092565b7f4e487b7100000000000000000000000000000000000000000000000000000000600052603260045260246000fd5b7f4e487b7100000000000000000000000000000000000000000000000000000000600052601160045260246000fd5b6000610b19826105ba565b9150610b24836105ba565b9250817fffffffffffffffffffffffffffffffffffffffffffffffffffffffffffffffff0483118215151615610b5d57610b5c610adf565b5b828202905092915050565b7f4e487b7100000000000000000000000000000000000000000000000000000000600052601260045260246000fd5b6000610ba2826105ba565b9150610bad836105ba565b925082610bbd57610bbc610b68565b5b828204905092915050565b7f596f7572207072696365206d757374206265203530252068696768657220746860008201527f616e207468652063757272656e74206f6e650000000000000000000000000000602082015250565b6000610c2460328361083a565b9150610c2f82610bc8565b604082019050919050565b60006020820190508181036000830152610c5381610c17565b9050919050565b7f4e487b7100000000000000000000000000000000000000000000000000000000600052602260045260246000fd5b60006002820490506001821680610ca157607f821691505b60208210811415610cb557610cb4610c5a565b5b5091905056fea2646970667358221220090de9f2c20a65357bfd076f6e18e1cd4e31428f91ce4365fc11d66a74c5044864736f6c63430008090033",
  "immutableReferences": {},
  "source": "// SPDX-License-Identifier: MIT\r\npragma solidity ^0.8.9;\r\n\r\ncontract Auction {\r\n    struct Asset {\r\n        string name;\r\n        uint256 value;\r\n        address owner;\r\n    }\r\n\r\n    Asset[] public assets;\r\n    uint256 numAssets = 0;\r\n    address manager;\r\n    uint256 mininmumValue;\r\n\r\n    constructor() {\r\n        manager = msg.sender;\r\n        createAsset(\"AAA\", 0.0001 ether, manager);\r\n        createAsset(\"BBB\", 0.0001 ether, manager);\r\n        createAsset(\"CCC\", 0.0001 ether, manager);\r\n        createAsset(\"DDD\", 0.0001 ether, manager);\r\n        createAsset(\"EEE\", 0.0001 ether, manager);\r\n    }\r\n\r\n    function createAsset(string memory name, uint256 value, address owner) public payable {\r\n        assets.push(Asset({name: name, value: value, owner: owner}));\r\n    }\r\n\r\n    function buyAsset(uint index) public payable {\r\n        mininmumValue = assets[index].value;\r\n        require(msg.value >= (mininmumValue * 3 / 2), \"Your price must be 50% higher than the current one\");\r\n        assets[index].value = msg.value;\r\n        assets[index].owner = msg.sender;\r\n    }\r\n\r\n    function getAssets() external view returns(Asset[] memory) {\r\n        return assets;\r\n    }\r\n}",
  "sourcePath": "C:\\Users\\Alexander\\Desktop\\solidity\\bitmedia-final\\contracts\\Assets.sol",
  "compiler": {
    "name": "solc",
    "version": "0.8.9+commit.e5eed63a.Emscripten.clang"
  },
  "schemaVersion": "3.4.3",
  "updatedAt": "2021-12-08T08:13:48.154Z",
  "devdoc": {
    "kind": "dev",
    "methods": {},
    "version": 1
  },
  "userdoc": {
    "kind": "user",
    "methods": {},
    "version": 1
  }
}